:020000040800F2
:10000000400E002089010008D5170008CD17000810
:10001000D117000845020008A919000800000000D7
:100020000000000000000000000000006D18000843
:100030004902000800000000D917000871180008E4
:10004000A3010008A3010008A3010008A301000800
:10005000A3010008A3010008A3010008A3010008F0
:10006000A3010008A3010008A3010008A3010008E0
:10007000A3010008A3010008A3010008A3010008D0
:10008000A3010008A3010008A3010008A3010008C0
:10009000A3010008A3010008A3010008A3010008B0
:1000A000A3010008A3010008A3010008A3010008A0
:1000B000A3010008A3010008A3010008A301000890
:1000C000A3010008A3010008A3010008A301000880
:1000D000A301000885190008911900089D1900085E
:1000E000A3010008A3010008A301000800F002F822
:1000F00000F03AF80AA090E8000C82448344AAF188
:100100000107DA4501D100F02FF8AFF2090EBAE885
:100110000F0013F0010F18BFFB1A43F0010318473B
:10012000E425000004260000103A24BF78C878C1F6
:10013000FAD8520724BF30C830C144BF04680C60ED
:10014000704700000023002400250026103A28BF35
:1001500078C1FBD8520728BF30C148BF0B60704739
:100160001FB51FBD10B510BD00F031F81146FFF7E7
:10017000F7FF01F01BFC00F04FF803B4FFF7F2FFAC
:1001800003BC00F057F800000948804709480047C1
:10019000FEE7FEE7FEE7FEE7FEE7FEE7FEE7FEE737
:1001A000FEE7FEE704480549054A064B7047000094
:1001B00075180008ED00000840080020400E0020DF
:1001C000400A0020400A002070477047704775467B
:1001D00000F02CF8AE4605006946534620F00700B3
:1001E000854618B020B5FFF7DDFFBDE820404FF091
:1001F00000064FF000074FF000084FF0000BAC4630
:10020000ACE8C009ACE8C009ACE8C009ACE8C0097A
:1002100021F007018D46704710B50446AFF300800A
:100220002046BDE81040FFF7A8BF00000048704717
:100230001000002001491820ABBEFEE72600020096
:1002400070470000FEE7000070470000014690F88C
:100250002100022816D10868D1E90FC3026822F0F4
:100260000E020260026822F001020260012000FA20
:1002700003F2CCF8042081F821000020002281F84C
:1002800020207047042088630120002281F820206C
:100290007047000080B590F82110022924D102682F
:1002A000116821F00E0111602F211368C4F20201C0
:1002B0008A4240F20401C4F2020123F001031360F8
:1002C00016DD3023C4F202039A421DD04423C4F247
:1002D00002039A421CD05823C4F202039A421DD151
:1002E0004FF4803322E000BF04218163012080BDF0
:1002F0000823C4F202039A420ED01C23C4F2020364
:100300009A420BD1102311E04FF480730EE000BF2E
:100310004FF480530AE000BF012307E001F1680CAD
:100320004FF08073624508BF4FF480130B600121CA
:1003300080F82110426B002180F820100AB190470C
:100340000021084680BD00002DE9F04F82B00E6804
:10035000002E00F0038141F20042C4F201020423A6
:1003600040F2004E904208BF03234FF6FF7CC4F2D8
:10037000010E009300240123C1F2100C4FF0000A7B
:100380004FF0000949E000BF012704F00C030F22E1
:100390009A402BEA020207FA03F34FEA9A051A433E
:1003A00046F82520D1F804B040F20C455FEACB2294
:1003B000DEF8082054BF22EA080242EA0802C4F22A
:1003C0000105CEF808202A685FEA8B2354BF22EA91
:1003D000080242EA08022A605FEA8B33DEF8042052
:1003E00054BF22EA080242EA08025FEACB33CEF8A1
:1003F0000420DEF800204FF0010354BF22EA080277
:1004000042EA0802CEF800200E680AF1010A36FA24
:100410000AF204F1040400F0A18003FA0AF816EAD3
:10042000080FF1D04E68664512DC122E56D8DFE870
:1004300006F0350B454955555555555555555555A6
:100440005555554D510000BFD1F80C9046E000BF06
:100450004FF6FF72C1F2210296420FDC0022C1F278
:10046000110296421AD00022C1F21202964215D011
:100470000022C1F22102964210D02FE00022C1F2E8
:10048000220296420AD00022C1F23102964205D0E1
:100490000022C1F23202964220D100BF8A684AB1DE
:1004A000012A14BFC0F81480C0F810804FF008096A
:1004B00014E000BF4FF0040910E000BFCA6802F169
:1004C00008090BE04FF0000908E000BFCA6802F11C
:1004D000040903E0CA6802F10C0900BF224606467F
:1004E000BAF1080F24BF203A043637680F2595402B
:1004F00027EA050509FA02F22A433260CA79D206D0
:100500007FF582AF41F21803C4F202031A68AEF518
:100510007E7642F001021A601A6802F0010201922E
:10052000019A2AF0030256F802B040F60002C4F223
:100530000102904210D040F60042C4F20102904203
:100540003FF422AF41F20002C4F20102009F904248
:1005500008BF022719E700BF002716E702B0BDE871
:10056000F08F0000002A08BF0904016170470000F5
:1005700040F63800C2F200000068704740F2000008
:1005800040F63801C2F20000C2F2000100780A68A9
:10059000104408607047000080B542F20000C4F2C9
:1005A0000200016841F010010160032000F08EF8A4
:1005B0000F2000F005F800F027F8002080BD0000B3
:1005C00070B540F20006C2F2000640F2080132782F
:1005D000C2F200014FF47A730968B3FBF2F20446E9
:1005E000B1FBF2F1084600F063FB0F2C4FF0010560
:1005F00008D838B94FF0FF3021460022002500F01E
:1006000039F87460284670BD82B041F21800C4F217
:1006100002000168022241F001010160016801F05D
:10062000010101910199416841F0805141604068A8
:1006300000F08050009000980420C4F2010001688E
:1006400062F31A61016002B070470000002848BFE1
:100650007047C1B200F01F00012202FA00F04EF212
:100660000012CEF2000242EAD10121F0030108603B
:100670007047000010B54EF60C5CCEF2000CDCF8B2
:100680000030C3F3022E8EF00704042C28BF04248C
:10069000BEF103034FF0FF3E0EFA04F438BF00230F
:1006A000A14399400EFA03F39A43114300F00F025D
:1006B00000F160430901043A03F5644362440028F1
:1006C00048BF02F10C03197010BD00004EF60C512A
:1006D000CEF200010A684FF6FF031A4060F30A22C7
:1006E00042F0806040F0FD70086070472DE9F043F3
:1006F00081B0002800F0858042F20008C4F20208B0
:100700000446D8F800000D4600F0070088420CD2DD
:10071000D8F8000020F007002843C8F80000D8F8F7
:10072000000000F00700A8426BD1206841F20409E4
:100730008107C4F2020917D5410705D5D9F8001081
:1007400041F4E061C9F80010010705D5D9F800109F
:1007500041F46051C9F80010D9F80010A26821F0E6
:10076000F0011143C9F80010C00741D1D8F80000CA
:1007700000F00700A8420CD9D8F8000020F00700CC
:100780002843C8F80000D8F8000000F00700A8428D
:1007900037D12068410707D5D9F80010E26821F465
:1007A000E0611143C9F80010000708D5D9F800002E
:1007B000216920F4605040EAC100C9F80000D9F86E
:1007C000002002F00C00082841F20020C0F27A005C
:1007D00050D142F2F263C2F38341C0F60003595C88
:1007E000D2033BD440F60010C0F23D00484341E044
:1007F000606802280AD001282AD159F8041C89030C
:1008000008D4012001B0BDE8F08300BF59F8041CF2
:100810008901F6D5D9F8001021F003010843C9F881
:100820000000FFF7A5FE064641F28837D9F8000020
:10083000616800F00C00B0EB810F97D0FFF798FED5
:10084000801BB842F2D9032001B0BDE8F08300BF9D
:1008500059F8041C8907D4D5DCE700BFD9F800207B
:1008600042F2F063C2F34042C0F600039A5C484390
:10087000B0FBF2F0D9F8001042F2D862C1F30311D4
:10088000C0F60002515C40F2080220FA01F140F289
:100890000400C2F200000068C2F200021160FFF71B
:1008A0008FFE002001B0BDE8F083000040F2080098
:1008B00041F20401C2F20000C4F2020100680968BA
:1008C00042F2E862C1F30221C0F60002515CC84066
:1008D0007047000040F2080041F20401C2F200003B
:1008E000C4F202010068096842F2E862C1F3C22161
:1008F000C0F60002515CC840704700002DE9F0418D
:1009000082B0002868D00446007841F20006C00793
:10091000C4F2020625D0706800F00C0004281BD039
:10092000706800F00C00082802D17068C00313D46E
:100930006068002800F06881B0F5A02F00F07C818D
:10094000B0F5803F00F07C81306820F4803030606A
:10095000306820F4802076E13068800301D560683B
:10096000D0B32078800718D5706810F00C0F07D02E
:10097000706800F00C0008286ED17068C0036BD45A
:100980003068800702D52069012825D13068616967
:1009900020F0F80040EAC1003060207800071FD442
:1009A0002078400732D4E56995B1706800F00C00FA
:1009B000082840F08F80012D0ED07068216A00F465
:1009C00080328A4208D1616A00F47010884203D1F3
:1009D000002002B0BDE8F081012002B0BDE8F08146
:1009E000A069002862D00020C4F242200121C0F892
:1009F0008014FFF7BDFD0546706A800700F18C800A
:100A0000FFF7B6FD401B0228F6D92AE1F06910F085
:100A1000805808D1F06940F08050F061F06900F032
:100A200080500090009847F20007C4F20007386831
:100A3000C00529D4386840F480703860FFF798FD0D
:100A4000054600BF3868C0051ED4FFF791FD401B66
:100A50006428F7D905E100BF2069002840F20000B2
:100A6000C4F2422000F0828001210160FFF780FD86
:100A7000054600BF306880073FF588AFFFF778FD77
:100A8000401B0228F6D9ECE0E068002800F08080E6
:100A9000052800F09780012800F09880306A20F047
:100AA00001003062306A20F0040092E00020C4F2BD
:100AB00042200021C0F88014FFF75AFD054600BF10
:100AC000706A80077FF56CAFFFF752FD401B02286C
:100AD000F6D9C6E00027C4F2422700203866FFF7A7
:100AE00047FD022D05460BD13068800140F1BE80E4
:100AF000FFF73EFD401B02284FF00300F4D968E7E2
:100B0000306880017FF564AFFFF732FD401B02289B
:100B10004FF00300F4D95CE740F20800C2F2000095
:100B2000006844F6D351C1F26201A0FB0101480AFA
:100B3000019000BF00BF0198411E002801913FF4C1
:100B40002FAF00BF0198411E002801913FF428AF4C
:100B500000BF0198411E002801913FF421AF00BF62
:100B60000198411E00280191E4D119E7002101609C
:100B7000FFF7FEFC054600BF306880077FF50DAF2C
:100B8000FFF7F6FC401B02284FF00300F4D920E7E2
:100B9000306A20F001003062306A20F004003062D8
:100BA000FFF7E6FC054641F2883700BF306A800750
:100BB00020D5FFF7DDFC401BB8424FF00300F5D90C
:100BC00007E700BF306A40F004003062306A40F04E
:100BD00001003062FFF7CCFC054641F2883700BFC8
:100BE000306A800706D4FFF7C3FC401BB842F7D930
:100BF00037E000BFB8F1000F7FF4D5AEF06920F008
:100C00008050F061CFE600BF306820F48030306063
:100C1000306820F480203060FFF7AAFC054600BF52
:100C2000306880037FF59DAEFFF7A2FC401B64286F
:100C30004FF00300F4D9CCE6306840F480203060F7
:100C4000306840F480303060FFF792FC054600BF0A
:100C5000306880033FF585AEFFF78AFC401B6428AF
:100C6000F6D9032002B0BDE8F08100BF206AB0F5DC
:100C7000803F05D17168A26821F400311143716091
:100C80007168626A21F47411114308437060012095
:100C90003866FFF76DFC0446306880013FF598AE7A
:100CA000FFF766FC001B02284FF00300F4D990E622
:100CB000411E0020B0EB116F1CBF012070474EF2A7
:100CC0001002CEF2000251604EF62351CEF2000126
:100CD000F0230B700721906011607047704700008F
:100CE00070470000B0B582B0044600680168C36870
:100CF000426901F02F05202D03F0200506D12DB10A
:100D0000204602B0BDE8B04000F0BCBD5FEA017C07
:100D10001EBF02F0010E03F4907212EB0E0253D1CB
:100D2000226B012A05D111F0100218BF13F0100236
:100D300036D10A0622D513F080021FD094F8411054
:100D400021293FD1A168B1F5805F03D12169002934
:100D500000F07082216A4A1C226209784160E18CAD
:100D600001390A04E1842DD1C16821F08001C160FC
:100D7000C16841F04001C16002B0B0BD490621D553
:100D800013F040011ED0C16821F04001C160202154
:100D9000204684F8411002B0BDE8B04000F014BD18
:100DA0000021019101680191416801910199406917
:100DB000400613D4A08DE18DE28D002A18BF884231
:100DC00040F0BA8102B0B0BDCA0718BF13F48072F8
:100DD00040F0B6804A0700F1B980BEE0E06B0168E0
:100DE00049688AB2002AEDD0A38D9A42EAD2E18501
:100DF0008069202800F09C80206850E8030F21685B
:100E000020F4807041E80302DAB1206850E8030F53
:100E1000216820F4807041E8030292B1206850E814
:100E2000030F216820F4807041E803024AB1206872
:100E300050E8030F216820F4807041E80302002A83
:100E4000DAD1206850E8050F216820F0010041E860
:100E50000502DAB1206850E8050F216820F0010092
:100E600041E8050292B1206850E8050F216820F0A2
:100E7000010041E805024AB1206850E8050F2168E9
:100E800020F0010041E80502002ADAD1206850E88C
:100E9000050F216820F0400041E80502DAB1206822
:100EA00050E8050F216820F0400041E8050292B1AA
:100EB000206850E8050F216820F0400041E8050255
:100EC0004AB1206850E8050F216820F0400041E851
:100ED0000502002ADAD1202084F842000020206395
:100EE000206850E8030F216820F0100041E8030259
:100EF000DAB1206850E8030F216820F0100041E8C3
:100F0000030292B1206850E8030F216820F010001E
:100F100041E803024AB1206850E8030F216820F03D
:100F2000100041E80302002ADAD1E06BFFF78EF9E6
:100F300002206063A08DE18D401A81B2204674E1E9
:100F4000626C42F0010262644A0706D5BEF1000FEE
:100F500003D0626C42F0020262648A0706D5BEF1D9
:100F6000000F03D0626C42F004026264BCF1000F17
:100F700009D545EA0E02B2FA82F2520903D1626C37
:100F800042F008026264626C002A3FF41BAF11F069
:100F9000200118BF002D03D0204600F073FC20680C
:100FA0004069616C00F0400001F00801401800F059
:100FB000B58000BF206850E8030F216820F49070CE
:100FC00041E80302BAB3206850E8030F216820F417
:100FD000907041E8030272B3206850E8030F216863
:100FE00020F4907041E803022AB3206850E8030F10
:100FF000216820F4907041E80302002ADAD11AE057
:10100000206850E8050F216820F0010041E8050242
:10101000DAB1206850E8050F216820F0010041E8AE
:10102000050292B1206850E8050F216820F0010008
:1010300041E805024AB1206850E8050F216820F018
:10104000010041E80502002ADAD1206B012824D1F1
:10105000206850E8030F216820F0100041E80302E7
:10106000DAB1206850E8030F216820F0100041E851
:10107000030292B1206850E8030F216820F01000AD
:1010800041E803024AB1206850E8030F216820F0CC
:10109000100041E80302002ADAD1202084F842003F
:1010A000002020632068406940063FD5206850E852
:1010B000050F216820F0400041E80502DAB1206800
:1010C00050E8050F216820F0400041E8050292B188
:1010D000206850E8050F216820F0400041E8050233
:1010E0004AB1206850E8050F216820F0400041E82F
:1010F0000502002ADAD1E06BC0B141F67901C0F6F1
:1011000000014163FFF7C6F800283FF45BAEE06BD7
:10111000416B02B0BDE8B040084700BF2046FFF772
:10112000DFFD0020606402B0B0BD00BF204602B009
:10113000BDE8B040FFF7D4BD401A216851E8031F55
:10114000226821F4907142E80313DBB1216851E871
:10115000031F226821F4907142E8031393B12168C0
:1011600051E8031F226821F4907142E803134BB148
:10117000216851E8031F226821F4907142E80313AB
:10118000002BDAD1216851E8051F226821F0010106
:1011900042E80513DBB1216851E8051F226821F000
:1011A000010142E8051393B1216851E8051F226847
:1011B00021F0010142E805134BB1216851E8051FF8
:1011C000226821F0010142E80513002BDAD1202129
:1011D00084F8421000212163216851E8031F22682E
:1011E00021F0100142E80313DBB1216851E8031F2D
:1011F000226821F0100142E8031393B1216851E8FD
:10120000031F226821F0100142E803134BB121684B
:1012100051E8031F226821F0100142E80313002B5C
:10122000DAD1022281B22046626302B0BDE8B0404A
:10123000FFF754BD216A31F8022B6FF35F22426041
:1012400021628CE5002804BF0120704710B50446D8
:1012500090F8410028B9002084F84000204600F0B2
:1012600063F8242084F841002068D4E90212C3689E
:1012700023F40053C360036923F440531A4302610B
:10128000D4E904231143C268194341F20C639A4321
:101290001143C1604169A26921F44071114343F6D1
:1012A0000002C4F201029042416103D0FFF7FEFA4E
:1012B00002E000BFFFF70EFB62681921484391006E
:1012C000B0FBF1F048F21F51C5F2EB11A0FB012376
:1012D0005A094FF69C73C0F6FF7302FB03003223DA
:1012E00003EB0010A0FB0101F02303EA5113206877
:1012F00003EB0212C1F3431111448160016921F42F
:1013000090410161416921F02A014161C16841F4C4
:101310000051C16000202021606484F8411084F8ED
:101320004210606310BD0000B0B586B0006844F2A2
:101330000041C4F2000188424FF00001CDE90411E0
:10134000CDE9021136D044F60001C4F20001884212
:1013500058D043F60001C4F20101884240F08C806D
:1013600041F21800C4F20200016840F6000441F4A2
:10137000804101600168C4F2010401F480410191DF
:101380000199016841F004010160006802A900F0C0
:101390000400019001984FF4007002900220039025
:1013A000032005902046FEF7CFFF4FF480600290A7
:1013B000252552E041F21800C4F20200416840F6CF
:1013C000000441F4003141604168C4F2010401F4B9
:1013D000003101910199016841F004010160006848
:1013E00002A900F00400019001980420029002205C
:1013F0000390032005902046FEF7A6FF08200290E8
:1014000026252AE041F21800C4F20200416841F4A6
:1014100080214160416801F48021019101990168B6
:1014200041F008010160006802A900F00800019085
:1014300001984FF4806002900220039003200590F1
:1014400040F60000C4F2010000F580642046FEF77B
:101450007BFF4FF40060272502900020CDE90300B8
:1014600002A92046FEF770FF284604210022FFF75C
:1014700001F92846FFF7EAF806B0B0BD90F842300F
:10148000202B1CBF0220704700294FF0010318BF1A
:10149000002A01D11846704700230363816222218C
:1014A0008285C285436480F842100169006819B1E1
:1014B000C16841F48071C1604169002341F00101BC
:1014C0004161C16841F02001C160184670470000C9
:1014D00070B540F27004C2F200040546006861680D
:1014E00088420BD1264616F8040B002101F0E8F8DB
:1014F000304621460122FFF7C1FF286840F2A011C3
:10150000C2F20001096888420CD12078012101F063
:10151000D7F840F2A010C2F2000021460122FFF7E6
:10152000ADFF286840F2E811C2F200010968884264
:1015300018BF70BD2078022101F0C2F840F2E81017
:10154000C2F2000021460122BDE87040FFF796BFBD
:101550002DE9F04381B0044690F84100202840F086
:10156000B180884600294FF0010000F0D680164671
:10157000002A00F0D2800020606421201D4684F8FB
:101580004100FEF7F5FFA684E684A1680646B1F5A2
:10159000805F03D12069002800F0988047464FF013
:1015A0000008E18C2068002900F0968005F101090F
:1015B0000BE000BF47B317F8011B4160E18C013914
:1015C000E184E18C002900F0878001680906F1D4EC
:1015D000B9F1000F0AD0EDB1FEF7CAFF801BA84297
:1015E00018D8206801680906F6D5E3E701680906FE
:1015F000E0D4016809065CBF01685FEA0161D9D4E3
:1016000001680906F2D5D5E738F8021B00276FF309
:101610005F21D2E7206850E8030F216820F4D070E2
:1016200041E80302BAB3206850E8030F216820F4B0
:10163000D07041E8030272B3206850E8030F2168BC
:1016400020F4D07041E803022AB3206850E8030F69
:10165000216820F4D07041E80302002ADAD11AE0B0
:10166000206850E8050F216820F0010041E80502DC
:10167000DAB1206850E8050F216820F0010041E848
:10168000050292B1206850E8050F216820F00100A2
:1016900041E805024AB1206850E8050F216820F0B2
:1016A000010041E80502002ADAD1202084F8410037
:1016B00084F84200002084F84000032001B0BDE817
:1016C000F08300BF022001B0BDE8F0830027E18C69
:1016D000206800297FF46AAF0168490619D4FDB17A
:1016E000691C0DD10168490613D4016849065CBF25
:1016F00001685FEA41610CD401684906F2D508E04F
:10170000FEF736FF801BA8420AD820680068400612
:10171000F6D5202084F84100002001B0BDE8F08318
:10172000206850E8030F216820F4D07041E80302DC
:10173000002A3ED0206850E8030F216820F4D070C2
:1017400041E80302AAB3206850E8030F216820F49F
:10175000D07041E8030262B3206850E8030F2168AB
:1017600020F4D07041E80302002AD9D121E000BF63
:10177000206850E8050F216820F0010041E80502CB
:10178000002A3FF492AF206850E8050F216820F04E
:10179000010041E80502002A3FF487AF206850E8C5
:1017A000050F216820F0010041E80502002A3FF4FE
:1017B0007CAF206850E8050F216820F0010041E867
:1017C0000502002AD4D170E770470000FEE7000050
:1017D000FEE70000FEE70000704700008188C08837
:1017E000081A38BF053080B2704700000023C0E9F6
:1017F000001302817047000080B58388C28893423D
:1018000004D14FF0FF0C4FFA8CF080BD02F1010EB5
:10181000B0F808C01FFA8EF3634503684FF0000C60
:101820009A5C28BFE6460A70A0F806E04FFA8CF0F2
:1018300080BD000080B5B0F804C0B0F808E00CF13D
:1018400001039AB2724528BF0023B0F806E09AB2AD
:10185000724503D1FF2040B280BD00BF026802F88C
:101860000C108380002040B280BD00007047000053
:10187000FEF784BE70470000406A0021C185C18424
:10188000FFF72EBA81B090F84210222921D1836847
:101890000246B3F5805F09D152F8281F52F8183C70
:1018A000002B63D003685B680AE000BF52F8281F72
:1018B00013B90369002BF5D003685B6803F07F035D
:1018C0000B70116801311160C18D01390A04C185A5
:1018D00002D001B0704700BF0168CA6822F0200240
:1018E000CA60CA6822F48072CA604A6922F00102A2
:1018F0004A61202180F8421000214163026B012AD5
:101900003CD10163016851E8031F026821F0100116
:1019100042E80313DBB1016851E8031F026821F0BC
:10192000100142E8031393B1016851E8031F0268F4
:1019300021F0100142E803134BB1016851E8031F85
:10194000026821F0100142E80313002BDAD101688C
:101950000A68D20606D5002200920A6800924968F9
:1019600000910099818D01B0FFF7B8B90268526803
:101970006FF35F2221F8022B8162A5E701B0FFF728
:10198000A7BD000040F27400C2F20000FFF7AAB940
:1019900040F2A010C2F20000FFF7A4B940F2E81034
:1019A000C2F20000FFF79EB9FEE7000090B0FEF71C
:1019B000F3FD00240120CDE90B44CDE90944069054
:1019C0000A904FF4E0104FF4803102250F9006A8E2
:1019D000CDE90714CDE90D51FEF790FF20B1EFF3EB
:1019E000108072B6FEE700BF0F20CDE901054FF46D
:1019F0008060CDE9040401A802210394FEF776FE7D
:101A000020B1EFF3108072B6FEE700BF41F218007C
:101A1000C4F20200016841F2000541F010010160CA
:101A20000168C4F2010501F01001069106990168F0
:101A3000002241F02001016001684FF4005401F0E0
:101A40002001069106990168002641F00401016019
:101A5000016801F0040106910699016841F008014E
:101A6000016000684FF4005100F0080006900698ED
:101A70002846FEF777FD0120CDE9070602200990F0
:101A800006A928460694FEF75FFC40F27008C2F2F1
:101A9000000805F52051404640F8041F4FF4E1349A
:101AA0000C27C0E90146C0E90366C0E90576C661B6
:101AB000FFF7C8FB20B1EFF3108072B6FEE700BF5E
:101AC00040F2A010A5F54C41C2F2000080E852009F
:101AD000C0E90366C0E90576C661FFF7B3FB28B12C
:101AE000EFF3108072B600BFFEE700BF40F2E810CF
:101AF000A5F54841C2F2000000230C274FF4E13263
:101B000080E80E00C0E90333C0E90573C361FFF745
:101B100099FB28B1EFF3108072B600BFFEE700BF5B
:101B2000002000F0A9FD012000F0A6FD022000F039
:101B3000A3FD40F23025C2F200052846002100F046
:101B400051F808F1040041460122FFF797FC40F2EA
:101B5000A016C2F20006304641460122FFF78EFC75
:101B600040F2E817C2F20007384641460122FFF76B
:101B700085FC06AC002000F075FD48B1002000F0A7
:101B80008DFD8DF8180028462146012200F042F80C
:101B9000012000F067FD50B1012000F07FFD8DF8BD
:101BA00018003046214601226423FFF7D1FC0220B1
:101BB00000F058FD0028DDD0022000F06FFD8DF808
:101BC00018003846214601226423FFF7C1FCD1E703
:101BD0000A7841F20000C4F201004FF40051FEF710
:101BE000C1BC000080F8001240F23441C2F2000192
:101BF00009680022A0F8F821C0E9382280F8E8201E
:101C0000C0E93011C0E93222C0E93422C0E93622ED
:101C1000704700002DE9F04F8BB00446002A00F019
:101C2000B78204F1EC0048F2203544F2901E079090
:101C300004F1E40092468B46CEF6B855C7F2DC6E4E
:101C4000089004F1E80000264FF00009069006E035
:101C500084F8F90109F10109D14500F0998294F85D
:101C6000F8211BF80910022A08D1552984F8F861D7
:101C7000F0D0AA2914BF00200120E9E794F8F93137
:101C8000AA294FF000074FF0000008BF571C092B8E
:101C900084F8F871DCD8DFE813F0170019005B0056
:101CA0009500D5001D0123012B010B00330100BF5E
:101CB000D4E97B020843D143C4F8EC0188424FF0D9
:101CC000000008BF0920C3E7C4E700BF4FFA81FC4A
:101CD00084F8FB11C94385EA5102CB0784F8FA6105
:101CE00008BF4A088F074CF2194085EA52034FEAB1
:101CF0004177C0F26D7058BF530800EAE7770807D4
:101D000048F63200C0F6DB6048BF4740C80641F2E3
:101D10006400C1F6B75048BF4740880642F2C80089
:101D2000C3F66E3048BF474087EA9310910648BF1C
:101D300080EA0E00990648BF6840BCF1000FC4F865
:101D4000F0014EBF022084F8FC61032080E700BF51
:101D5000D4F8F00184F8FC11484085EA5001C2072C
:101D600008BF410883074CF2194785EA51024FEA40
:101D70004073C0F26D7758BF4A0807EAE37307075C
:101D800048F63207C0F6DB6748BF7B40C70641F222
:101D90006407C1F6B75748BF7B40800642F2C800CF
:101DA000C3F66E3048BF434083EA9210890648BFAD
:101DB00080EA0E00910648BF6840C4F8F001032095
:101DC00046E700BFD4F8F00184F8FD11484085EAE9
:101DD0005002C30784F8FE1108BF420887074CF27F
:101DE000194685EA52034FEA4077C0F26D7658BF34
:101DF000530806EAE777060748F63206C0F6DB66C0
:101E000048BF7740C60641F26406C1F6B75648BFE0
:101E10007740800642F2C800C3F66E3048BF4740A4
:101E200087EA9310920648BF80EA0E009A0648BFE0
:101E30006840C4F8F00104200026002908BF0520EE
:101E400006E700BF94F8FA014CF21947421C84F8E7
:101E5000FA21D4F8F021204480F8EC1082EA010045
:101E600085EA5001C20708BF4108830785EA51028D
:101E70004FEA4073C0F26D7758BF4A0807EAE37330
:101E8000070748F63207C0F6DB6748BF7B40C70646
:101E900041F26407C1F6B75748BF7B40800642F263
:101EA000C800C3F66E3048BF434083EA92108906EB
:101EB00048BF80EA0E00910648BF684094F8FD11C3
:101EC000C4F8F001481E010684F8FD017FF4C2AE9B
:101ED0000520BDE60806C4F8EC010620B8E600BF00
:101EE000D4F8EC0140EA0140C4F8EC010720AFE669
:101EF000D4F8EC0140EA0120C4F8EC010820A7E680
:101F0000552940F0068140F2344194F8FB21C2F299
:101F1000000194F8FC0194F8FE710968FE2AC4F8E7
:101F2000C41013D0FF2A25D194F8E68094F8E73046
:101F3000A0EB0801A3EB0803CFB2DBB29F422BD981
:101F4000D4F8D0000130C4F8D000E2E0D4F8D800D2
:101F5000089A0130C4F8D800002084F8E200A4F800
:101F6000DC00A4F8E00010601071C4E93011C4F87E
:101F7000C8006DE64FFA82F80026B8F1FF3F67DD32
:101F800094F80032079908F03F003A467646FFF78A
:101F90001FFEB64691E000BF94F8ECC094F8E470E0
:101FA000404584F8E60000F0B2806FEA0806064477
:101FB00094F8E220B4F8DC30F6B2032ECDE9092C17
:101FC000CDE9040130D301F0FC0C4FF0000E0846BF
:101FD000791CFEB201F00F0106EB460601EB410150
:101FE00004EB860604EB8101B6798979BA1C02F00C
:101FF0000F023144FE1C02EB420206F00F0604EB16
:10200000820206EB4606927904EB8606B679114405
:102010003A1D0EF1040E02F00F0731445FFA8EF202
:102020006245A3EB0103D3D10598002610F003010C
:1020300004985CD07A1C02F00F0E07EB470204EB09
:10204000820292790129A3EB020339D177464EE04F
:1020500094F8E820C4F8C810904229D1411C94F8A3
:10206000000284F8E81000F0DFF90B2812D394F88E
:10207000E820FF20069B009601902046FF210126C4
:10208000029600F0D7F940F23440C2F20000006836
:10209000C4F8C00094F80032079908F03F003A46AF
:1020A000FFF796FD44F2901E0020C7F2DC6E05E0BB
:1020B000D4F8D4000130C4F8D40000200026C7E5CD
:1020C000BA1C02F00F0C0EEB4E0204EB8202927966
:1020D0000229A3EB020301D1674608E00CEB4C0296
:1020E00004EB82029279F91C01F00F079B1A099AFE
:1020F000A8EB000144F2901EDDF828C01144C7F29D
:10210000DC6E84F8E47084F8E210A4F8DC308445D6
:1021100002D100209CE500BFACEB00004FF00008AE
:10212000099000BFF8B200EB400604EB860081790D
:10213000C379027A8088029143F0800140F23843EB
:102140000A9700902046C2F2000340F2FF37019741
:102150005746DA46F34600F06DF940F23440C2F2D9
:1021600000000068099944F826000A9808F101085F
:102170000130DE46D346BA4600F00F075FFA88F01A
:10218000C9B2002688424FF00000CBD360E500BF03
:1021900000F034F994F8E72094F8E6608346931B46
:1021A000D4F8C400D4F8C880D9B240F234470F291B
:1021B000C2F20007C7F800B03AD894F8E2708F4234
:1021C00036D994F8E400184400F00F0000EB400901
:1021D00004EB8906374617F8061F94F8000201F150
:1021E0000B0A00F021F9824500F2DC8094F8E72028
:1021F000B188F07940F2FF333F783272CDE90013B5
:1022000040F2384340F08001C2F2000320460297BA
:1022100000F010F940F23440C2F20000006894F877
:10222000E71044F82900481C84F8E700BAE000BF32
:10223000B24200F0B780ABEB0000C0087C2800F28F
:10224000B18094F8E410F64301EB410054F820C04B
:102250003244D2B204EB8007ABEB0C00032A03F04C
:10226000030C46D303F0FC0E002600BFCAB202EBFB
:10227000420254F822300436ABEB0303834288BF9A
:1022800004EB820701F1010202F00F0202EB4202AD
:1022900054F8225088BF1846ABEB0503834288BF31
:1022A00004EB820701F1020202F00F0202EB42028C
:1022B00054F8225088BF1846ABEB0503834288BF11
:1022C00004EB820701F1030202F00F0202EB42026B
:1022D00054F8225088BF1846ABEB0503834284BFF5
:1022E00004EB820718460431F2B2724501F00F0187
:1022F000BCD1BCF1000F2FD001EB410254F82230C9
:10230000ABEB0303834288BF04EB8207BCF1010FF0
:1023100022D04A1C02F00F0202EB420254F8226063
:10232000834288BF1846ABEB0603834288BF04EBA9
:102330008207BCF1020F0FD0023101F00F0101EB57
:10234000410154F821208342ABEB020288BF1846BA
:10235000824288BF04EB81073868ABEB000032286B
:1023600020D3B97994F8000201F10B0500F05CF874
:10237000854217D8B988F87940F2FF33BE793A7AA6
:10238000CDE9001340F2384340F08001C2F200036F
:102390002046029600F04EF840F23440C2F20000AF
:1023A0000068386040F23440C2F200000068D4F89F
:1023B000C010401A1A281ED3ABEB0800C0087C28B6
:1023C00019D894F8000200F02FF80B2813D32346F5
:1023D00013F8E82FFF2000210127CDE90010204647
:1023E000FF21029700F026F840F23440C2F20000CC
:1023F0000068C4F8C0000BB0BDE8F08FFEF7B8B8B5
:1024000080B582B040F27000C2F200008DF8071073
:1024100004300DF1070101226423FFF799F802B09F
:1024200080BD0000704700004FF40070704700004E
:10243000704700002DE9F04F81B0044602200C9E49
:10244000DDE90A5784F8FF014FF0FF30C4F8F401CA
:1024500094F800029A46904689464FFA81FBFFF7AE
:10246000E7FF94F80002AA21FFF7CAFF94F80002E0
:10247000AA21FFF7C5FF94F80002AA21FFF7C0FFC9
:1024800020464946012200F089F8BBF1FF3F04DCF9
:1024900020464146012200F081F8204631460122C3
:1024A00000F07CF86EB100BFA8B21AF80010204608
:1024B000012200F073F8681C013E310600EA0705AE
:1024C000F2D1D4F8F401C64394F80002350E29463F
:1024D000FFF796FFAA2D0BD194F8FF0101380106F2
:1024E00084F8FF0107D194F800025521FFF788FF17
:1024F000022084F8FF0194F80002C6F3074529463C
:10250000FFF77EFFAA2D0BD194F8FF0101380106D9
:1025100084F8FF0107D194F800025521FFF770FFFE
:10252000022084F8FF0194F80002C6F3072529462B
:10253000FFF766FFAA2D0BD194F8FF0101380106C1
:1025400084F8FF0107D194F800025521FFF758FFE6
:10255000022084F8FF0194F80002F5B22946FFF743
:102560004FFFAA2D0BD194F8FF010138010684F822
:10257000FF0107D194F800025521FFF741FF022027
:1025800084F8FF0194F800025521FFF739FF94F811
:10259000000201B0BDE8F04FFFF744BF70B504463C
:1025A00090F8000216460D46FFF72AFF36B9AA2D0D
:1025B00046D0022084F8FF0170BD00BFD4F8F401BA
:1025C00048F2203C80EA0501CEF6B85C8CEA510264
:1025D000CB0708BF4A088E074CF219408CEA520319
:1025E0004FEA4176C0F26D7048F6320E58BF53087C
:1025F00000EAE670C0F6DB6E0E0748BF80EA0E0008
:1026000041F2640ECE06C1F6B75E48BF80EA0E0006
:1026100042F2C806C3F66E36890648BF704080EAAB
:10262000931044F29011C7F2DC61920648BF484013
:10263000990648BF80EA0C00C4F8F401AA2DB8D16D
:1026400094F8FF010138010684F8FF0118BF70BD3E
:1026500094F800025521FFF7D3FE022084F8FF0111
:1026600070BD000040F27C1100EB4000C2F200019E
:1026700001EB8000FFF7B2B840F27C1200EB4001A2
:10268000C2F2000202EB810240F2BC01C2F2000180
:1026900001EB801110464022FFF7A8B880B582B048
:1026A00040F27C1100EB4000C2F2000101EB80001F
:1026B0000DF10701FFF7A0F89DF8070002B080BDFB
:1026C000024601EB410040F27C11C2F2000101EB35
:1026D00080001146FFF7AEB80000000000000000C7
:1026E00001020304060708090000000001020304B8
:1026F000010202030405060708090A0B0C0D0E0F60
:102700001010000028270008000000201000000022
:10271000280100083827000810000020300E0000B3
:10272000440100080000000001000000100000004B
:082730000024F4000000000089
:04000005080000ED02
:00000001FF
